{
    "contractName": "SimpleAuction",
    "abi": [
        {
            "inputs": [
                {
                    "internalType": "uint256",
                    "name": "biddingTime",
                    "type": "uint256"
                },
                {
                    "internalType": "address payable",
                    "name": "benificiaryAddress",
                    "type": "address"
                }
            ],
            "stateMutability": "nonpayable",
            "type": "constructor"
        },
        {
            "inputs": [],
            "name": "AuctionAlreadyEnded",
            "type": "error"
        },
        {
            "inputs": [],
            "name": "AuctionEndAlreadyCalled",
            "type": "error"
        },
        {
            "inputs": [],
            "name": "AuctionNotYetEnded",
            "type": "error"
        },
        {
            "inputs": [
                {
                    "internalType": "uint256",
                    "name": "highestBid",
                    "type": "uint256"
                }
            ],
            "name": "BidNotHighEnough",
            "type": "error"
        },
        {
            "anonymous": false,
            "inputs": [
                {
                    "indexed": false,
                    "internalType": "address",
                    "name": "winner",
                    "type": "address"
                },
                {
                    "indexed": false,
                    "internalType": "uint256",
                    "name": "amount",
                    "type": "uint256"
                }
            ],
            "name": "auctionEnded",
            "type": "event"
        },
        {
            "anonymous": false,
            "inputs": [
                {
                    "indexed": false,
                    "internalType": "address",
                    "name": "bidder",
                    "type": "address"
                },
                {
                    "indexed": false,
                    "internalType": "uint256",
                    "name": "amount",
                    "type": "uint256"
                }
            ],
            "name": "highestBidIncreased",
            "type": "event"
        },
        {
            "inputs": [],
            "name": "auctionEndTime",
            "outputs": [
                {
                    "internalType": "uint256",
                    "name": "",
                    "type": "uint256"
                }
            ],
            "stateMutability": "view",
            "type": "function"
        },
        {
            "inputs": [],
            "name": "beneficiary",
            "outputs": [
                {
                    "internalType": "address payable",
                    "name": "",
                    "type": "address"
                }
            ],
            "stateMutability": "view",
            "type": "function"
        },
        {
            "inputs": [],
            "name": "highestBidder",
            "outputs": [
                {
                    "internalType": "address",
                    "name": "",
                    "type": "address"
                }
            ],
            "stateMutability": "view",
            "type": "function"
        }
    ],
    "bytecode": "608060405234801561001057600080fd5b5060405161019d38038061019d83398101604081905261002f9161005f565b600080546001600160a01b0319166001600160a01b038316179055610054824261009c565b600155506100c29050565b6000806040838503121561007257600080fd5b825160208401519092506001600160a01b038116811461009157600080fd5b809150509250929050565b600082198211156100bd57634e487b7160e01b600052601160045260246000fd5b500190565b60cd806100d06000396000f3fe6080604052348015600f57600080fd5b5060043610603c5760003560e01c806338af3eed1460415780634b449cba14607057806391f90157146085575b600080fd5b6000546053906001600160a01b031681565b6040516001600160a01b0390911681526020015b60405180910390f35b607860015481565b6040519081526020016067565b6002546053906001600160a01b03168156fea2646970667358221220b58522e49e897e5471ab98b43b2e2e007987326fccc0508faedbb273c8a46de164736f6c634300080b0033",
    "sourcePath": "/home/affin/Desktop/Solidity/Example/SimpleAuction.sol",
    "compiler": {
        "name": "solc",
        "version": "0.8.11+commit.d7f03943"
    },
    "functionHashes": {
        "auctionEndTime()": "4b449cba",
        "beneficiary()": "38af3eed",
        "highestBidder()": "91f90157"
    },
    "gasEstimates": {
        "creation": {
            "codeDepositCost": "41000",
            "executionCost": "infinite",
            "totalCost": "infinite"
        },
        "external": {
            "auctionEndTime()": "2295",
            "beneficiary()": "2304",
            "highestBidder()": "2348"
        }
    }
}